:020000040000FA
:0800000000008A110A12B32B63
:08000800F1000308F2000A08F0
:10001000F3008A110A12002373088A007208830011
:06002000F10E710E090053
:0A002600831203138030A20025208E
:10003000080083120313C030A20025200800DD2031
:1000400003149220831203130800DD200310922072
:10005000080083120313850183160313851005110D
:1000600085110E30831603139F00FF308312031394
:10007000A000FF3083120313A100E220A00B3C2854
:100080003030A20003106E20FF30A000FF30A1002E
:10009000E220A00B47283030A20003106E20FF3072
:1000A000A100E2201830A20003106E20FF30A10052
:1000B000E2202030A20003106E20DD202830A200B4
:1000C00025200D30A20025200130A2002520063079
:1000D000A20025208030A20025200800031C8511E5
:1000E00003188515051183160313081088100811CD
:1000F000881100000000831203138514A21F8811C9
:10010000A21B8815221F0811221B0815A21E881089
:10011000A21A8814221E0810221A081400000000D7
:10012000851008006E2083120313A20E6E20831226
:100130000313A20E0800831603130814881408156D
:10014000881583120313031C8511031885150515E3
:100150000000000085140000000000000000881D61
:10016000A3138819A317081D231308192317881C24
:10017000A3128818A316081C23120818231685102A
:10018000000000000000000000000000000000006F
:10019000851400000000881DA3118819A315081DEF
:1001A000231108192315881CA3108818A314081CF0
:1001B0002310081823148510080003109B20A31B8C
:0A01C000DD280800A10BE22808006A
:0401CA0000340034C9
:0201CE00F0013E
:1001D00083120313A4018A110A126D218A110A12D3
:1001E000831203138701871DFE28071EFE28871E22
:1001F000FE28071FFE288A110A12EE288312031315
:1002000000308700890007087839F000831603134F
:100210000030870007308900831203130030870005
:10022000890009080739F00483120313A5018A1114
:100230000A12701B1E298A110A1243298A110A12F6
:10024000F01A2929043083120313A5048A110A1213
:1002500043298A110A12701A3429083083120313B1
:10026000A5048A110A1243298A110A12F0193F299A
:100270000C3083120313A5048A110A12432910308B
:100280008A110A1259298A110A1270194A298A11E7
:100290000A1259298A110A12F018552901308312BD
:1002A0000313A5048A110A12592902308312031379
:1002B000A5048312031325088A110A1289218312C7
:1002C0000313A4008A110A126529F0018A110A1287
:1002D00079218A110A126D210800831603137830E0
:1002E00087000030890083120313003087008900E3
:1002F00008008A110A126D21831203138A110A124F
:10030000871D7929071E7929871E7929071F7929D1
:10031000080083120313250801308A009330250753
:1003200003188A0A8200313432343334803434344E
:1003300035343634803437343834393480342A34E0
:100340003034233480348034031083120313A90122
:1003500004308A110A12A800F930831603139200A0
:100360008A110A12E1218312031326088312031350
:10037000A70083120313A707831203138A110A121B
:100380000318291483120313A80BB929291803147D
:1003900083120313A70C8312031397128312031300
:1003A0008A110A122918F7218A110A1217128312C8
:1003B00003132708831203139500831203131215E6
:1003C0000800831203132B08303A83120313A6018B
:1003D000A6000310A60DA60DA60DA607A60783125C
:1003E00003132D08303A83120313A6070800831263
:1003F0000313971608008A110A1229208312031387
:100400000130A2008A110A12252083120313AA01C7
:100410002A088A110A122B2283120313A200A208AF
:100420008A110A120319232A8A110A121F20831221
:1004300003130F302A028A110A1203191920AA0A7B
:100440008A110A12082A831203139030A2008A111B
:100450000A122520080083120313B60002308A0016
:100460003530360703188A0A820050344534523436
:10047000433445344E3454342034443452344934B3
:1004800056344534203430343034523450344D34C2
:1004900020343D34203430342E3430342034203471
:1004A000003483120313A41B080024082A3C8A1179
:1004B0000A120319C12A831203132F08831203138C
:1004C00003196A2A013C831603130319822A83162F
:1004D00003139A2A8B138A110A12831203138E3084
:1004E000A2002520831203132408233C8B17031931
:1004F0000800240883120313AC008A110A12B522E3
:10050000AF0A08008B138A110A12831203138F306B
:10051000A2002520831203132408233C8B17031900
:100520000800240883120313AE008A110A12B522B0
:10053000AF0A080083120313AF01831203132408C8
:10054000233C8A110A12031D6A2A831203132C0802
:1005500083120313AB00831203132E0883120313B9
:10056000AD008A110A12A42108008B138A110A1205
:1005700083120313240883120313A2001F208B1776
:1005800008008B1383120313AF01831203138E3001
:10059000A2008A110A122520831203132B0883124A
:1005A0000313A2008A110A121F20831203132D08BD
:1005B00083120313A2008A110A121F208B1708004E
:1005C000831203130512831603133830810083123C
:1005D000031381010B110B178316031301308C00D9
:1005E000831203130C108312031330309000831214
:1005F00003135D308F00831203133D308E0008001B
:10060000831203130108B5008312031330100B1972
:10061000301483120313F40A831203135D308F0026
:100620008312031329308E00831203130C108312DC
:100630000313741D08008A110A1222238A110A1258
:100640006B2308008312031381010B118312031320
:10065000F40183120313B10183120313B201831255
:100660000313B30183120313B401031030180314EE
:1006700083120313B50C8312031305300318B4005F
:1006800083120313643035028A110A120318572BA0
:10069000831203130A3035028A110A120318612BE0
:1006A00083120313350883120313B3000800831267
:1006B0000313B10A831203136430B5028A110A12BC
:1006C000402B83120313B20A831203130A30B502BC
:1006D0008A110A12482B831203138A110A12C63098
:1006E000A20025208312031331088A110A1203196C
:1006F000812B303883120313A2001F208A110A12A3
:10070000882B8312031332088A110A120319922BC1
:10071000831203133208303883120313A2008A11A4
:100720000A121F2083120313330830388312031375
:10073000A2008A110A121F202E30A2001F2083124D
:1007400003133408303883120313A2001F208312CE
:1007500003132030A2001F201F208A110A1290309C
:06076000A20025200800A4
:0A0766008A110A12FB218A110A12FF
:10077000E022831603130711051683120313AB013E
:1007800083120313AD0183120313AF018316031306
:100790009201831203139501831203130F30970004
:1007A0008312031301309200831203138B178312F9
:1007B000031310148A110A12E7208A110A12512217
:0607C0008A110A12DA2B77
:02400E00393740
:00000001FF
